:020000040000FA
:1000000001288312073099008316093085000130DA
:10001000950081138312A501A301A401A70101305A
:10002000A6001630850005183728A508031D1C28D2
:100030000130A500A301A401A30A0319A40A2408FE
:10004000031D2828FA302302031C2828FA30A300B5
:10005000622026181328A70A19302702031C132828
:10006000A701051E35280512132805161328A50813
:1000700003195328A5012408031D4628C83023026C
:100080000318462885106B20851451282608013A4C
:10009000A60026184E280511A7015128051505169A
:1000A000A701A301A401622026181328A70A19306A
:1000B0002702031C1328A701051E60280512132818
:1000C000051613280D30A000FF30A100A10B6628F3
:1000D000A00B642800340A30A2006220A20B6D2815
:0200E0000034EA
:02400E00C43FAD
:00000001FF
